:1000000033C000003CC600004BC0000049C00000E7
:1000100047C0000045C0000043C0000041C00000D0
:100020003FC000003DC000003BC0000039C00000E0
:1000300037C0000035C0000033C0000031C00000F0
:100040002FC000002DC000002BC0000029C0000000
:1000500027C0000025C0000023C0000021C0000010
:100060001FC000001DC0000011241FBECFEFD4E050
:10007000DEBFCDBF12E0A0E0B1E0E0E3F4E102C0FA
:1000800005900D92AC30B107D9F712E0ACE0B2E0C8
:1000900001C01D92AE32B107E1F7DED50C94160A0D
:1000A000AFCFEF92FF920F931F937B018C0120E063
:1000B00030E040E05FE4DAD288237CF0C801B70189
:1000C00020E030E040E05FE45FD180D39B01AC01F1
:1000D000205030404040504805C0C801B70176D399
:1000E0009B01AC01B901CA011F910F91FF90EF90E4
:1000F0000895A0E0B0E0EFE7F0E00C942C09DC01FB
:100100002B01FA019C91923008F439C1EB018881EE
:10011000823008F433C1943069F4843009F02FC17F
:1001200011969C9111978981981709F428C1A0E034
:10013000B1E025C1843009F421C18230A9F49230A4
:1001400009F01DC19A01AD0188E0EA010990AE01F4
:10015000E90109929E018150C1F7E201898111965E
:100160009C918923818308C1923009F407C11296BA
:100170002D903C901397EB018A819B811496AD9052
:10018000BD90CD90DC901797EC80FD800E811F8193
:100190009101281B390BB90137FF04C06627772767
:1001A000621B730B603271050CF061C012161306EE
:1001B0006CF537014801062E04C096948794779415
:1001C00067940A94D2F721E030E040E050E004C0A8
:1001D000220F331F441F551F6A95D2F7215030401C
:1001E000404050402E213F2140235123211531050D
:1001F0004105510521F021E030E040E050E0790177
:100200008A01E628F728082919293CC0232BD1F1B7
:10021000260E371E35014601062E04C0969487949B
:10022000779467940A94D2F721E030E040E050E000
:1002300004C0220F331F441F551F6A95D2F7215067
:100240003040404050402A213B214C215D21211566
:1002500031054105510521F021E030E040E050E05A
:1002600059016A01A628B728C828D9280BC08215C9
:1002700093052CF01C01AA24BB24650103C0EE24C5
:10028000FF24870111969C91D20111968C919817A9
:1002900009F445C0992339F0A80197012A193B09AF
:1002A0004C095D0906C0A60195012E193F09400BB6
:1002B000510B57FD08C0118233822282248335837B
:1002C000468357831DC081E0818333822282882741
:1002D0009927DC01821B930BA40BB50B84839583B8
:1002E000A683B7830DC0220F331F441F551F2483DD
:1002F00035834683578382819381019793838283D9
:100300002481358146815781DA01C9010197A1090C
:10031000B1098F5F9F4FAF4FBF4328F30BC091834D
:1003200033822282EA0CFB1C0C1D1D1DE482F58227
:100330000683178383E0808324813581468157813A
:1003400057FF1AC0C901AA2797FDA095BA2F81703F
:100350009070A070B0705695479537952795822B71
:10036000932BA42BB52B84839583A683B78382819B
:100370009381019693838283DF0101C0D201CD0175
:10038000CDB7DEB7E2E184C7A0E2B0E0E9ECF1E08E
:100390006FC769837A838B839C832D833E834F83CE
:1003A0005887E9E0EE2EF12CEC0EFD1ECE010196F1
:1003B000B70181D38E010F5E1F4FCE010596B801A4
:1003C0007AD38A8991E089278A8BC701B801AE0167
:1003D000475E5F4F8EDE9AD2A096E6E065C7A0E248
:1003E000B0E0E4EFF1E044C769837A838B839C83B8
:1003F0002D833E834F835887F9E0EF2EF12CEC0ECE
:10040000FD1ECE010196B70156D38E010F5E1F4F20
:10041000CE010596B8014FD3C701B801AE01475EC2
:100420005F4F67DE73D2A096E6E03EC7A0E2B0E081
:10043000EBE1F2E011C769837A838B839C832D8380
:100440003E834F835887CE010196BE01675F7F4F81
:1004500032D3CE010596BE016F5E7F4F2CD39985B6
:10046000923088F089898230C8F0943019F4823053
:1004700051F404C0843029F4923081F480E091E09A
:10048000C6C0923049F420E09A858A89981321E009
:100490002A87CE010996BBC0823049F420E09A85B4
:1004A0008A89981321E02A8BCE014196B0C02D8411
:1004B0003E844F8458886D887E888F88988CEE247F
:1004C000FF248701AA24BB24650140E050E060E0DE
:1004D00070E0E0E0F0E0C10181709070892BE9F0FC
:1004E000E60CF71C081D191D9A01AB012A0D3B1DD6
:1004F0004C1D5D1D80E090E0A0E0B0E0E614F70444
:100500000805190520F481E090E0A0E0B0E0BA0110
:10051000A901480F591F6A1F7B1FAA0CBB1CCC1CCA
:10052000DD1C97FE08C081E090E0A0E0B0E0A82AC2
:10053000B92ACA2ADB2A3196E032F10549F0660C65
:10054000771C881C991C5694479437942794C3CFE2
:10055000FA85EA892B893C898B859C85280F391F70
:100560002E5F3F4F17C0CA0181709070892B61F0D8
:1005700016950795F794E79480E090E0A0E0B0E846
:10058000E82AF92A0A2B1B2B7695679557954795EC
:100590002F5F3F4F77FDE7CF0CC0440F551F661FFD
:1005A000771F17FD4160EE0CFF1C001F111F21502B
:1005B0003040403090E0590790E0690790E47907B7
:1005C00060F32B8F3C8FDB01CA018F779070A07096
:1005D000B07080349105A105B10561F447FD0AC0F2
:1005E000E114F1040105110529F0405C5F4F6F4FE4
:1005F0007F4F40781A8EFE1711F081E08A8F4D8F61
:100600005E8F6F8F78A383E0898FCE0149967ED16C
:10061000A096E2E13DC6A8E1B0E0E0E1F3E028C643
:1006200069837A838B839C832D833E834F83588792
:1006300089E0E82EF12CEC0EFD1ECE010196B701EB
:100640003AD28E010F5E1F4FCE010596B80133D20C
:100650008985823038F08989823020F0C701B8015D
:10066000A2D201C08FEF6896E6E01EC6A8E1B0E016
:10067000EBE3F3E0FDC569837A838B839C832D8351
:100680003E834F83588789E0E82EF12CEC0EFD1E47
:10069000CE010196B7010FD28E010F5E1F4FCE0122
:1006A0000596B80108D28985823038F08989823070
:1006B00020F0C701B80177D201C08FEF6896E6E05D
:1006C000F3C5A8E1B0E0E6E6F3E0D2C569837A833A
:1006D0008B839C832D833E834F83588789E0E82E4C
:1006E000F12CEC0EFD1ECE010196B701E4D18E0176
:1006F0000F5E1F4FCE010596B801DDD1898582308E
:1007000038F08989823020F0C701B8014CD201C08D
:1007100081E06896E6E0C8C5A8E0B0E0E1E9F3E072
:10072000A4C59B01AC0183E08983DA01C901882754
:10073000B7FD83959927AA27BB27B82E2115310528
:100740004105510519F482E0898339C08823A9F055
:10075000203080E0380780E0480780E8580729F417
:1007600060E070E080E09FEC2EC0EE24FF24870163
:10077000E21AF30A040B150B02C079018A018EE11B
:10078000C82ED12CDC82CB82ED82FE820F831887AB
:10079000C801B7016CD001971816190684F4082E09
:1007A00004C0EE0CFF1C001F111F0A94D2F7ED824B
:1007B000FE820F831887C81AD90ADC82CB82BA82DC
:1007C000CE010196A3D02896E9E06BC5ACE0B0E07D
:1007D000EBEEF3E051C569837A838B839C83CE0172
:1007E0000196BE016B5F7F4F66D18D81823061F1D2
:1007F000823050F1843021F48E81882351F12EC053
:100800002F81388537FD20C06E812F3131051CF0D6
:100810006623F9F023C08EE190E0821B930B2985BB
:100820003A854B855C8504C0569547953795279545
:100830008A95D2F76623B1F0509540953095219571
:100840003F4F4F4F5F4F0EC020E030E040E050E0A0
:1008500009C02FEF3FEF4FEF5FE704C020E030E02B
:1008600040E050E8B901CA012C96E2E021C5EF92C0
:10087000FF920F931F937B018C0180E0E81680E0CC
:10088000F80681E0080780E0180788F48FEFE81683
:10089000F1040105110531F028F088E090E0A0E0B6
:1008A000B0E017C080E090E0A0E0B0E012C080E0CF
:1008B000E81680E0F80680E0080781E0180728F0D5
:1008C00088E190E0A0E0B0E004C080E190E0A0E02A
:1008D000B0E020E230E040E050E0281B390B4A0B4A
:1008E0005B0B04C016950795F794E7948A95D2F7A9
:1008F000F701E85FFE4F8081281B3109410951094A
:10090000C9011F910F91FF90EF900895DF92EF9230
:10091000FF920F931F93FC01E480F58006811781FD
:10092000D1808081823048F480E090E0A0E1B0E0A6
:10093000E82AF92A0A2B1B2BA5C0843009F49FC092
:10094000823021F4EE24FF24870105C0E114F10474
:100950000105110519F4E0E0F0E096C062817381B1
:100960009FEF623879070CF05BC022E83FEF261B4F
:10097000370B2A3131052CF020E030E040E050E028
:100980002AC0B801A701022E04C076956795579535
:1009900047950A94D2F781E090E0A0E0B0E004C06F
:1009A000880F991FAA1FBB1F2A95D2F70197A1098B
:1009B000B1098E219F21A023B1230097A105B10584
:1009C00021F081E090E0A0E0B0E09A01AB01282B9B
:1009D000392B4A2B5B2BDA01C9018F779070A070FD
:1009E000B07080349105A105B10539F427FF09C025
:1009F000205C3F4F4F4F5F4F04C0215C3F4F4F4F34
:100A00005F4FE0E0F0E02030A0E03A07A0E04A07C6
:100A1000A0E45A0710F0E1E0F0E079018A0127C074
:100A20006038710564F5FB01E158FF4FD801C7013B
:100A30008F779070A070B07080349105A105B105DA
:100A400039F4E7FE0DC080E490E0A0E0B0E004C01F
:100A50008FE390E0A0E0B0E0E80EF91E0A1F1B1F34
:100A600017FF05C016950795F794E794319687E030
:100A700016950795F794E7948A95D1F705C0EE246B
:100A8000FF248701EFEFF0E06E2F679566276795EB
:100A9000902F9F77D794DD24D7948E2F8695492F5A
:100AA000462B582F5D29B701CA011F910F91FF9066
:100AB000EF90DF900895FC01DB014081518122819C
:100AC000622F6F7770E0221F2227221F9381892FC8
:100AD000880F822B282F30E0991F9927991F119694
:100AE0009C93119721153105A9F541155105610513
:100AF000710511F482E037C082E89FEF13969C9352
:100B00008E9312979A01AB0167E0220F331F441FA7
:100B1000551F6A95D1F783E08C930DC0220F331FC8
:100B2000441F551F12968D919C9113970197139610
:100B30009C938E931297203080E0380780E048071E
:100B400080E4580758F314962D933D934D935C938E
:100B5000179708952F3F310579F441155105610527
:100B6000710519F484E08C93089564FF03C081E05B
:100B70008C9312C01C9210C02F57304013963C9398
:100B80002E93129783E08C9387E0440F551F661FC6
:100B9000771F8A95D1F7706414964D935D936D938A
:100BA0007C93179708951F93DC01FB019C91923071
:100BB00008F447C08081823008F443C0943051F477
:100BC00011961C91843099F58181682F70E0611B2A
:100BD00071093FC0843021F0923031F48230B9F194
:100BE0008181882389F12DC011961C911197823043
:100BF000F1F081811817D9F412962D913C91139739
:100C0000828193818217930794F028173907BCF0EB
:100C100014968D919D910D90BC91A02D24813581CC
:100C200046815781281739074A075B0718F41123B3
:100C300041F00AC082179307A407B50740F41123B7
:100C400019F061E070E005C06FEF7FEF02C060E077
:100C500070E0CB011F91089558D055D0CCD12DD242
:100C6000C3D2299A58D0B7D205C0429A4398449A21
:100C700024D2439A80E0C8D18F31B9F7FFCF1F92B9
:100C80000F920FB60F9211242F933F934F935F93C0
:100C90006F937F938F939F93AF93BF93EF93FF9344
:100CA000E89840912C0250912D0280E061E625E009
:100CB000C5D190932D0280932C0272D2E0912C0228
:100CC000F0912D02E081E13039F0E13018F0E230AE
:100CD00039F404C0F2D005C049D103C062D101C0CB
:100CE0008AD0E89AFF91EF91BF91AF919F918F9138
:100CF0007F916F915F914F913F912F910F900FBE18
:100D00000F901F901895539A089587B18C6187B9F9
:100D100088B188B90895429A80E593ECFC01319737
:100D2000F1F74298439A5B9AFC013197F1F74398A7
:100D3000449A5B980197F1F744980895AF92BF9257
:100D4000CF92DF92EF92FF920F931F939C01611558
:100D5000710511F4439A06C06130710511F4429A8D
:100D600001C0449AB901882777FD8095982FD4DC7B
:100D70005B016C0120E030E048E453E457DB7B0189
:100D80008C0120E030E040E85FE39BDC88231CF42A
:100D900061E070E020C0C801B70120E03FEF4FE7FD
:100DA00057E439DC1816A4F4C601B50120E030E0A0
:100DB00040E251E43BDB75D984E190E005C0FC01E1
:100DC0003197F1F76150704061157105C1F706C0A8
:100DD000C801B70166D9CB010197F1F74398429852
:100DE00044985B981F910F91FF90EF90DF90CF9008
:100DF000BF90AF9008958F929F92AF92BF92CF9283
:100E0000DF92EF92FF920F931F93CF93DF93C1E096
:100E1000D0E084E1882E912CCE0161E070E08EDF7D
:100E2000BE01882777FD8095982F76DC5B016C01E9
:100E300020E030E048E453E4F9DA7B018C0120E063
:100E400030E040E85FE33DDC88231CF461E070E0C3
:100E50001EC0C801B70120E03FEF4FE757E4DBDBDE
:100E6000181694F4C601B50120E030E040E251E4E8
:100E7000DDDA17D905C0C4010197F1F76150704060
:100E800061157105C1F706C0C801B7010AD9CB01C8
:100E90000197F1F72396CB35D10509F0BDCF4398E3
:100EA000DF91CF911F910F91FF90EF90DF90CF9046
:100EB000BF90AF909F908F9008950F931F9389E1FB
:100EC00090E060E070E03ADF00E915E6C8010197C4
:100ED000F1F789E190E060E070E030DFC801019750
:100EE000F1F789E190E060E070E028DFC801019748
:100EF000F1F7C8010197F1F78FE590E060E070E04D
:100F00001DDFC8010197F1F78FE590E060E070E028
:100F100015DFC8010197F1F78FE590E060E070E020
:100F20000DDFC8010197F1F7C8010197F1F789E1D9
:100F300090E060E070E002DFC8010197F1F789E11D
:100F400090E060E070E0FADEC8010197F1F789E116
:100F500090E060E070E0F2DEC8010197F1F788ED03
:100F600096ED0197F1F71F910F9108950F931F933D
:100F70008CE291E063E070E0E1DE00E61AEEC80189
:100F80000197F1F78CE291E063E070E0D7DEC801F1
:100F90000197F1F788ED96ED0197F1F71F910F9109
:100FA00008950F931F93CF93DF93D6D163E070E042
:100FB00040D1BC01C0E0D0E008EE13E085E090E055
:100FC000BDDEC8010197F1F7C7D163E070E031D110
:100FD000BC012196CA30D10589F780E49FE124E164
:100FE00030E0F9013197F1F70197D9F7DF91CF910F
:100FF0001F910F91089584B18E6284B98CB580657C
:101000008CBD2A9A2998089592E0292F2A95F1F704
:101010002A989A95F1F78EBD0DB407FEFDCF8EB5D7
:1010200082E08A95F1F78FEF8EBD0DB407FEFDCFFC
:101030008EB592E09A95F1F72A9A08951F93782F2A
:10104000F894813009F4605E82E0982F9A95F1F768
:101050002A988A95F1F76EBD0DB407FEFDCF8EB5C7
:1010600082E08A95F1F7A0E0B0E030E092E01FEF77
:101070001BC0772361F4603A51F01EBD0DB407FE2A
:10108000FDCF8EB5FD01E45FFD4F808309C0FA01FD
:10109000EA0FFB1F80818EBD0DB407FEFDCF8EB51C
:1010A000892F8A95F1F71196A217B30714F32A9A9C
:1010B00078948CE092E01F910895CF92DF92EF92A6
:1010C000FF920F931F93DF93CF9300D000D00F9226
:1010D000CDB7DEB780E2C82E8EE4D82EC6010197C8
:1010E000F1F711E0198381E061E07E010894E11CD1
:1010F000F11CA70121E0A2DF8FE2898381E064E097
:10110000A70121E09BDF198381E062E0A70121E0D4
:1011100095DF03E0098381E063E0A70121E08EDF32
:10112000198381E065E0A70121E088DF86E28983F9
:1011300081E066E0A70121E081DF12E119831A83D3
:101140001B831C831D8381E06AE0A70125E076DF15
:1011500019831A831B831C831D8381E060E1A7012F
:1011600025E06CDF098381E061E1A70121E066DF12
:101170008FE1898381E060E0A70121E05FDFC601A4
:101180000197F1F70F900F900F900F900F90CF9164
:10119000DF911F910F91FF90EF90DF90CF90089516
:1011A00082E0982F9A95F1F72A988A95F1F787E2CD
:1011B0008EBD0DB407FEFDCF8EB582E08A95F1F7A6
:1011C00080E78EBD0DB407FEFDCF8EB582E08A9517
:1011D000F1F72A9A089550985A9AE9E6F0E080814A
:1011E00082608083E89A08951092C50089E0809318
:1011F000C400E0ECF0E080818260808388E180932D
:10120000C10086E08093C2000895AA1BBB1B51E178
:1012100007C0AA1FBB1FA617B70710F0A61BB70B66
:10122000881F991F5A95A9F780959095BC01CD010B
:10123000089597FB092E07260AD077FD04D0E5DF35
:1012400006D000201AF4709561957F4F0895F6F747
:10125000909581959F4F08952F923F924F925F9264
:101260006F927F928F929F92AF92BF92CF92DF92B6
:10127000EF92FF920F931F93CF93DF93CDB7DEB71B
:10128000CA1BDB0B0FB6F894DEBF0FBECDBF0994AF
:101290002A88398848885F846E847D848C849B8406
:1012A000AA84B984C884DF80EE80FD800C811B8114
:1012B000AA81B981CE0FD11D0FB6F894DEBF0FBE43
:1012C000CDBFED010895A0E0B0E0E8E6F9E0CCCFB5
:1012D000EC01A880B980CA80DB80A114B104C104EC
:1012E000D10441F484E2A82E89EDB82E8BE5C82EF6
:1012F00087E0D82EC601B5012DE133EF41E050E083
:1013000058D027EA31E440E050E034D07B018C0132
:10131000C601B5012DE133EF41E050E04AD0CA01EA
:10132000B9012CEE34EF4FEF5FEF24D06E0D7F1D2F
:10133000801F911F97FF04C061507040804090480B
:10134000688379838A839B839B013F77C901CDB7EB
:10135000DEB7EAE0A5CFB7CF88E092E0B4CFA0E057
:10136000B0E08093080290930902A0930A02B09320
:101370000B020895629FD001739FF001829FE00DE0
:10138000F11D649FE00DF11D929FF00D839FF00D04
:10139000749FF00D659FF00D9927729FB00DE11DB0
:1013A000F91F639FB00DE11DF91FBD01CF0111248D
:1013B000089597FB092E05260ED057FD04D014D0B2
:1013C0000AD0001C38F450954095309521953F4F38
:1013D0004F4F5F4F0895F6F7909580957095619502
:1013E0007F4F8F4F9F4F0895A1E21A2EAA1BBB1B60
:1013F000FD010DC0AA1FBB1FEE1FFF1FA217B307E1
:10140000E407F50720F0A21BB30BE40BF50B661FF6
:10141000771F881F991F1A9469F7609570958095BA
:1014200090959B01AC01BD01CF010895F894FFCFC9
:10143000000000000000000000010202030303039B
:101440000404040404040404050505050505050554
:101450000505050505050505060606060606060634
:10146000060606060606060606060606060606061C
:101470000606060606060606070707070707070704
:1014800007070707070707070707070707070707EC
:1014900007070707070707070707070707070707DC
:1014A00007070707070707070707070707070707CC
:1014B00007070707070707070808080808080808B4
:1014C000080808080808080808080808080808089C
:1014D000080808080808080808080808080808088C
:1014E000080808080808080808080808080808087C
:1014F000080808080808080808080808080808086C
:10150000080808080808080808080808080808085B
:10151000080808080808080808080808080808084B
:10152000080808080808080808080808080808083B
:0C1530000808080808080808010000006E
:00000001FF
