:1000000033C000004CC000004AC0000048C00000DF
:1000100046C0000044C0000042C0000040C00000D4
:100020003EC000003CC000003AC0000038C00000E4
:1000300036C0000034C0000032C0000030C00000F4
:100040002EC000002CC000002AC0000028C0000004
:1000500026C0000078C0000022C0000020C00000C0
:100060001EC000001CC0000011241FBECFEFD4E052
:10007000DEBFCDBF11E0A0E0B1E0EEEDF5E002C0E3
:1000800005900D92AE30B107D9F711E0AEE0B1E0C6
:1000900001C01D92A733B107E1F70AD09EC2B0CFCD
:1000A00085B1806C85B95D9A2F982E985D980895DA
:1000B0004FD194D184B1806C84B9559AF1DF36D197
:1000C00080917A00806480937A00809164008062DD
:1000D00080936400809164008860809364008091C4
:1000E00064008064809364008091640080688093E1
:1000F000640083B7817F826083BF83B7816083BFE1
:1001000085B7806685BF8F7D85BF889583B7816001
:1001100083BF889583B78E7F83BFFFCF8091000117
:100120008093320180910301909104018093330107
:1001300080910101909102018093340182E391E06A
:10014000C0D1DBD1ADCF1F920F920FB60F92112409
:10015000CF92DF92EF92FF920F931F932F933F93D3
:100160004F935F936F937F938F939F93AF93BF93BF
:10017000EF93FF938091780090E090933601809305
:100180003501409179002091350130913601942F4D
:1001900080E0822B932BA0E0B0E080932E0190931F
:1001A0002F01A0933001B093310180917C0080FF3A
:1001B0002BC080912E0190912F01A0913001B09120
:1001C0003101909304018093030140910B01509100
:1001D0000C012091030130910401C901880F991F7E
:1001E000820F931F9A0163E0220F331F6A95E1F794
:1001F000241B350B820F931F6AE070E0B8D1709317
:100200000C0160930B015AC060912E0170912F0177
:100210008091300190913101E0900501F09006014C
:1002200028EC30E040E050E083D100E010E0A8018D
:100230009701B1D13093020120930101C0900B01CD
:10024000D0900C0160912E0170912F0180913001AE
:1002500090913101E0900501F090060128EC30E02A
:1002600040E050E065D100E010E0A801970193D193
:10027000C21AD30AD0920801C0920701C0900B01A4
:10028000D0900C0160912E0170912F01809130016E
:1002900090913101E0900501F090060128EC30E0EA
:1002A00040E050E045D100E010E0A801970173D193
:1002B000C20ED31ED0920A01C092090180917C0027
:1002C00091E0892780937C00209103013091040103
:1002D00080910701909108012817390758F0209163
:1002E0000301309104018091090190910A01821764
:1002F000930728F413DF80E197E20197F1F7FF916C
:10030000EF91BF91AF919F918F917F916F915F918D
:100310004F913F912F911F910F91FF90EF90DF90A0
:10032000CF900F900FBE0F901F901895399880E4D2
:1003300080937C008EEA80937A0010927B0010926A
:100340007E007894EAE7F0E08081806480830895FD
:1003500084B18E6284B98CB580658CBD2A9A299847
:1003600008951F93782F813009F4605E82E0982F02
:100370009A95F1F72A988A95F1F76EBD0DB407FEAC
:10038000FDCF8EB582E08A95F1F7A0E0B0E030E0D5
:1003900092E01FEF1BC0772361F4603A51F01EBD5D
:1003A0000DB407FEFDCF8EB5FD01E25FFE4F8083E9
:1003B00009C0FA01EA0FFB1F80818EBD0DB407FE54
:1003C000FDCF8EB5892F8A95F1F71196A217B30745
:1003D00014F32A9A8EE091E01F910895CF92DF9254
:1003E000EF92FF920F931F93DF93CF9300D000D033
:1003F0000F92CDB7DEB780E2C82E8EE4D82EC601AC
:100400000197F1F711E0198381E061E07E01089422
:10041000E11CF11CA70121E0A4DF8FE2898381E0C8
:1004200064E0A70121E09DDF198381E062E0A7017C
:1004300021E097DF03E0098381E063E0A70121E089
:1004400090DF198381E065E0A70121E08ADF86E281
:10045000898381E066E0A70121E083DF12E119834F
:100460001A831B831C831D8381E06AE0A70125E0BA
:1004700078DF19831A831B831C831D8381E060E16D
:10048000A70125E06EDF098381E061E1A70121E09A
:1004900068DF8EE1898381E060E0A70121E061DF10
:1004A000C6010197F1F70F900F900F900F900F90EA
:1004B000CF91DF911F910F91FF90EF90DF90CF9040
:1004C00008950F931F938C0180E061EEA80120E056
:1004D00048DF80E060EAA80123E043DF80ED97E099
:1004E000FC013197F1F7299A25E02A95F1F729982F
:1004F0000197F1F71F910F91089582E0982F9A9537
:10050000F1F72A988A95F1F787E28EBD0DB407FEC0
:10051000FDCF8EB582E08A95F1F780E78EBD0DB4F0
:1005200007FEFDCF8EB582E08A95F1F72A9A0895ED
:10053000629FD001739FF001829FE00DF11D649FC7
:10054000E00DF11D929FF00D839FF00D749FF00D53
:10055000659FF00D9927729FB00DE11DF91F639FF4
:10056000B00DE11DF91FBD01CF0111240895AA1B93
:10057000BB1B51E107C0AA1FBB1FA617B70710F08E
:10058000A61BB70B881F991F5A95A9F780959095C0
:10059000BC01CD010895A1E21A2EAA1BBB1BFD01CF
:1005A0000DC0AA1FBB1FEE1FFF1FA217B307E40752
:1005B000F50720F0A21BB30BE40BF50B661F771FAA
:1005C000881F991F1A9469F760957095809590958A
:0E05D0009B01AC01BD01CF010895F894FFCF4F
:0E05DE000201000100FF037F007F0000020009
:00000001FF
